{
  "address": "0x91F59AF7ce717099162D13A406357538bACAaFb5",
  "abi": [
    {
      "inputs": [],
      "stateMutability": "nonpayable",
      "type": "constructor"
    },
    {
      "anonymous": false,
      "inputs": [
        {
          "indexed": true,
          "internalType": "address",
          "name": "account",
          "type": "address"
        },
        {
          "indexed": true,
          "internalType": "address",
          "name": "operator",
          "type": "address"
        },
        {
          "indexed": false,
          "internalType": "bool",
          "name": "approved",
          "type": "bool"
        }
      ],
      "name": "ApprovalForAll",
      "type": "event"
    },
    {
      "anonymous": false,
      "inputs": [
        {
          "indexed": true,
          "internalType": "address",
          "name": "previousOwner",
          "type": "address"
        },
        {
          "indexed": true,
          "internalType": "address",
          "name": "newOwner",
          "type": "address"
        }
      ],
      "name": "OwnershipTransferred",
      "type": "event"
    },
    {
      "anonymous": false,
      "inputs": [
        {
          "indexed": true,
          "internalType": "address",
          "name": "operator",
          "type": "address"
        },
        {
          "indexed": true,
          "internalType": "address",
          "name": "from",
          "type": "address"
        },
        {
          "indexed": true,
          "internalType": "address",
          "name": "to",
          "type": "address"
        },
        {
          "indexed": false,
          "internalType": "uint256[]",
          "name": "ids",
          "type": "uint256[]"
        },
        {
          "indexed": false,
          "internalType": "uint256[]",
          "name": "values",
          "type": "uint256[]"
        }
      ],
      "name": "TransferBatch",
      "type": "event"
    },
    {
      "anonymous": false,
      "inputs": [
        {
          "indexed": true,
          "internalType": "address",
          "name": "operator",
          "type": "address"
        },
        {
          "indexed": true,
          "internalType": "address",
          "name": "from",
          "type": "address"
        },
        {
          "indexed": true,
          "internalType": "address",
          "name": "to",
          "type": "address"
        },
        {
          "indexed": false,
          "internalType": "uint256",
          "name": "id",
          "type": "uint256"
        },
        {
          "indexed": false,
          "internalType": "uint256",
          "name": "value",
          "type": "uint256"
        }
      ],
      "name": "TransferSingle",
      "type": "event"
    },
    {
      "anonymous": false,
      "inputs": [
        {
          "indexed": false,
          "internalType": "string",
          "name": "value",
          "type": "string"
        },
        {
          "indexed": true,
          "internalType": "uint256",
          "name": "id",
          "type": "uint256"
        }
      ],
      "name": "URI",
      "type": "event"
    },
    {
      "inputs": [
        {
          "internalType": "address",
          "name": "_authorized",
          "type": "address"
        }
      ],
      "name": "addAuthorized",
      "outputs": [],
      "stateMutability": "nonpayable",
      "type": "function"
    },
    {
      "inputs": [
        {
          "internalType": "address",
          "name": "account",
          "type": "address"
        },
        {
          "internalType": "uint256",
          "name": "id",
          "type": "uint256"
        }
      ],
      "name": "balanceOf",
      "outputs": [
        {
          "internalType": "uint256",
          "name": "",
          "type": "uint256"
        }
      ],
      "stateMutability": "view",
      "type": "function"
    },
    {
      "inputs": [
        {
          "internalType": "address[]",
          "name": "accounts",
          "type": "address[]"
        },
        {
          "internalType": "uint256[]",
          "name": "ids",
          "type": "uint256[]"
        }
      ],
      "name": "balanceOfBatch",
      "outputs": [
        {
          "internalType": "uint256[]",
          "name": "",
          "type": "uint256[]"
        }
      ],
      "stateMutability": "view",
      "type": "function"
    },
    {
      "inputs": [
        {
          "internalType": "string",
          "name": "hash",
          "type": "string"
        }
      ],
      "name": "confirmUpload",
      "outputs": [],
      "stateMutability": "nonpayable",
      "type": "function"
    },
    {
      "inputs": [
        {
          "internalType": "uint16",
          "name": "quantity",
          "type": "uint16"
        }
      ],
      "name": "getIds",
      "outputs": [
        {
          "internalType": "uint256[]",
          "name": "",
          "type": "uint256[]"
        }
      ],
      "stateMutability": "view",
      "type": "function"
    },
    {
      "inputs": [
        {
          "internalType": "address",
          "name": "account",
          "type": "address"
        },
        {
          "internalType": "address",
          "name": "operator",
          "type": "address"
        }
      ],
      "name": "isApprovedForAll",
      "outputs": [
        {
          "internalType": "bool",
          "name": "",
          "type": "bool"
        }
      ],
      "stateMutability": "view",
      "type": "function"
    },
    {
      "inputs": [
        {
          "internalType": "address",
          "name": "beneficiary",
          "type": "address"
        },
        {
          "internalType": "uint256",
          "name": "id",
          "type": "uint256"
        },
        {
          "internalType": "uint256",
          "name": "quantity",
          "type": "uint256"
        },
        {
          "internalType": "bytes",
          "name": "data",
          "type": "bytes"
        }
      ],
      "name": "mint",
      "outputs": [],
      "stateMutability": "nonpayable",
      "type": "function"
    },
    {
      "inputs": [],
      "name": "owner",
      "outputs": [
        {
          "internalType": "address",
          "name": "",
          "type": "address"
        }
      ],
      "stateMutability": "view",
      "type": "function"
    },
    {
      "inputs": [
        {
          "internalType": "address",
          "name": "_authorized",
          "type": "address"
        }
      ],
      "name": "removeAuthorized",
      "outputs": [],
      "stateMutability": "nonpayable",
      "type": "function"
    },
    {
      "inputs": [],
      "name": "renounceOwnership",
      "outputs": [],
      "stateMutability": "nonpayable",
      "type": "function"
    },
    {
      "inputs": [
        {
          "internalType": "address",
          "name": "from",
          "type": "address"
        },
        {
          "internalType": "address",
          "name": "to",
          "type": "address"
        },
        {
          "internalType": "uint256[]",
          "name": "ids",
          "type": "uint256[]"
        },
        {
          "internalType": "uint256[]",
          "name": "amounts",
          "type": "uint256[]"
        },
        {
          "internalType": "bytes",
          "name": "data",
          "type": "bytes"
        }
      ],
      "name": "safeBatchTransferFrom",
      "outputs": [],
      "stateMutability": "nonpayable",
      "type": "function"
    },
    {
      "inputs": [
        {
          "internalType": "address",
          "name": "from",
          "type": "address"
        },
        {
          "internalType": "address",
          "name": "to",
          "type": "address"
        },
        {
          "internalType": "uint256",
          "name": "id",
          "type": "uint256"
        },
        {
          "internalType": "uint256",
          "name": "amount",
          "type": "uint256"
        },
        {
          "internalType": "bytes",
          "name": "data",
          "type": "bytes"
        }
      ],
      "name": "safeTransferFrom",
      "outputs": [],
      "stateMutability": "nonpayable",
      "type": "function"
    },
    {
      "inputs": [
        {
          "internalType": "address",
          "name": "operator",
          "type": "address"
        },
        {
          "internalType": "bool",
          "name": "approved",
          "type": "bool"
        }
      ],
      "name": "setApprovalForAll",
      "outputs": [],
      "stateMutability": "nonpayable",
      "type": "function"
    },
    {
      "inputs": [
        {
          "internalType": "bytes4",
          "name": "interfaceId",
          "type": "bytes4"
        }
      ],
      "name": "supportsInterface",
      "outputs": [
        {
          "internalType": "bool",
          "name": "",
          "type": "bool"
        }
      ],
      "stateMutability": "view",
      "type": "function"
    },
    {
      "inputs": [
        {
          "internalType": "uint256",
          "name": "tokenId",
          "type": "uint256"
        }
      ],
      "name": "tokenToFolder",
      "outputs": [
        {
          "internalType": "uint256",
          "name": "",
          "type": "uint256"
        }
      ],
      "stateMutability": "pure",
      "type": "function"
    },
    {
      "inputs": [
        {
          "internalType": "address",
          "name": "newOwner",
          "type": "address"
        }
      ],
      "name": "transferOwnership",
      "outputs": [],
      "stateMutability": "nonpayable",
      "type": "function"
    },
    {
      "inputs": [
        {
          "internalType": "uint256",
          "name": "tokenId",
          "type": "uint256"
        }
      ],
      "name": "uri",
      "outputs": [
        {
          "internalType": "string",
          "name": "",
          "type": "string"
        }
      ],
      "stateMutability": "view",
      "type": "function"
    }
  ],
  "transactionHash": "0xa527b34f010769e7bfc442d209ea9d7fe21d1885eceb1230031b9da6e83d4672",
  "args": [],
  "numDeployments": 1,
  "solcInputHash": "d638d04cc3d80d214ffc90cb700eb60c",
  "bytecode": "0x60806040523480156200001157600080fd5b506040805160208101909152600081526200002c8162000055565b50620000383362000067565b6200004f6004620000b960201b6200084d1760201c565b62000233565b600262000063828262000167565b5050565b600380546001600160a01b038381166001600160a01b0319831681179093556040519116919082907f8be0079c531659141344cd1fd0a4f28419497f9722a3daafe3b4186f6b6457e090600090a35050565b80546001019055565b634e487b7160e01b600052604160045260246000fd5b600181811c90821680620000ed57607f821691505b6020821081036200010e57634e487b7160e01b600052602260045260246000fd5b50919050565b601f8211156200016257600081815260208120601f850160051c810160208610156200013d5750805b601f850160051c820191505b818110156200015e5782815560010162000149565b5050505b505050565b81516001600160401b03811115620001835762000183620000c2565b6200019b81620001948454620000d8565b8462000114565b602080601f831160018114620001d35760008415620001ba5750858301515b600019600386901b1c1916600185901b1785556200015e565b600085815260208120601f198616915b828110156200020457888601518255948401946001909101908401620001e3565b5085821015620002235787850151600019600388901b60f8161c191681555b5050505050600190811b01905550565b611d6080620002436000396000f3fe608060405234801561001057600080fd5b506004361061010a5760003560e01c8063715018a6116100a2578063cf1c316a11610071578063cf1c316a14610230578063e985e9c514610243578063f242432a1461027f578063f2c12a2c14610292578063f2fde38b146102a557600080fd5b8063715018a6146101e7578063731133e9146101ef5780638da5cb5b14610202578063a22cb4651461021d57600080fd5b80633a3b71fb116100de5780633a3b71fb1461018d578063485d7d94146101a15780634aa88f67146101b45780634e1273f4146101d457600080fd5b8062fdd58e1461010f57806301ffc9a7146101355780630e89341c146101585780632eb2c2d614610178575b600080fd5b61012261011d366004611182565b6102b8565b6040519081526020015b60405180910390f35b6101486101433660046111c2565b610351565b604051901515815260200161012c565b61016b6101663660046111e6565b6103a1565b60405161012c919061124f565b61018b6101863660046113ab565b6103ef565b005b61012261019b3660046111e6565b60801c90565b61018b6101af366004611454565b61043b565b6101c76101c236600461146f565b610464565b60405161012c91906114ce565b6101c76101e23660046114e1565b610520565b61018b610649565b61018b6101fd3660046115f3565b61065d565b6003546040516001600160a01b03909116815260200161012c565b61018b61022b36600461165a565b610713565b61018b61023e366004611454565b610722565b610148610251366004611696565b6001600160a01b03918216600090815260016020908152604080832093909416825291909152205460ff1690565b61018b61028d3660046116c9565b61074e565b61018b6102a036600461172d565b610793565b61018b6102b3366004611454565b6107d4565b60006001600160a01b0383166103285760405162461bcd60e51b815260206004820152602a60248201527f455243313135353a2061646472657373207a65726f206973206e6f742061207660448201526930b634b21037bbb732b960b11b60648201526084015b60405180910390fd5b506000818152602081815260408083206001600160a01b03861684529091529020545b92915050565b60006001600160e01b03198216636cdb3d1360e11b148061038257506001600160e01b031982166303a24d0760e21b145b8061034b57506301ffc9a760e01b6001600160e01b031983161461034b565b6060600560006103b18460801c90565b81526020019081526020016000206103c883610856565b6040516020016103d99291906117c4565b6040516020818303038152906040529050919050565b6001600160a01b03851633148061040b575061040b8533610251565b6104275760405162461bcd60e51b815260040161031f9061187b565b610434858585858561095e565b5050505050565b610443610b3b565b6001600160a01b03166000908152600660205260409020805460ff19169055565b606060008261ffff166001600160401b0381111561048457610484611262565b6040519080825280602002602001820160405280156104ad578160200160208202803683370190505b5090506000805b8461ffff168161ffff1610156105175760006104d082846118e0565b61ffff1660806104df60045490565b901b17905080848361ffff16815181106104fb576104fb611902565b60209081029190910101525061051081611918565b90506104b4565b50909392505050565b606081518351146105855760405162461bcd60e51b815260206004820152602960248201527f455243313135353a206163636f756e747320616e6420696473206c656e677468604482015268040dad2e6dac2e8c6d60bb1b606482015260840161031f565b600083516001600160401b038111156105a0576105a0611262565b6040519080825280602002602001820160405280156105c9578160200160208202803683370190505b50905060005b8451811015610641576106148582815181106105ed576105ed611902565b602002602001015185838151811061060757610607611902565b60200260200101516102b8565b82828151811061062657610626611902565b602090810291909101015261063a81611939565b90506105cf565b509392505050565b610651610b3b565b61065b6000610b95565b565b3360009081526006602052604090205460ff16806106945750336106896003546001600160a01b031690565b6001600160a01b0316145b6106d15760405162461bcd60e51b815260206004820152600e60248201526d1b9bdd08185d5d1a1bdc9a5e995960921b604482015260640161031f565b61043485858585858080601f016020809104026020016040519081016040528093929190818152602001838380828437600092019190915250610be792505050565b61071e338383610cfb565b5050565b61072a610b3b565b6001600160a01b03166000908152600660205260409020805460ff19166001179055565b6001600160a01b03851633148061076a575061076a8533610251565b6107865760405162461bcd60e51b815260040161031f9061187b565b6104348585858585610ddb565b61079b610b3b565b8181600560006107aa60045490565b815260200190815260200160002091826107c592919061199d565b5061071e600480546001019055565b6107dc610b3b565b6001600160a01b0381166108415760405162461bcd60e51b815260206004820152602660248201527f4f776e61626c653a206e6577206f776e657220697320746865207a65726f206160448201526564647265737360d01b606482015260840161031f565b61084a81610b95565b50565b80546001019055565b60608160000361087d5750506040805180820190915260018152600360fc1b602082015290565b8160005b81156108a7578061089181611939565b91506108a09050600a83611a72565b9150610881565b6000816001600160401b038111156108c1576108c1611262565b6040519080825280601f01601f1916602001820160405280156108eb576020820181803683370190505b5090505b841561095657610900600183611a86565b915061090d600a86611a99565b610918906030611aad565b60f81b81838151811061092d5761092d611902565b60200101906001600160f81b031916908160001a90535061094f600a86611a72565b94506108ef565b949350505050565b81518351146109c05760405162461bcd60e51b815260206004820152602860248201527f455243313135353a2069647320616e6420616d6f756e7473206c656e677468206044820152670dad2e6dac2e8c6d60c31b606482015260840161031f565b6001600160a01b0384166109e65760405162461bcd60e51b815260040161031f90611ac0565b3360005b8451811015610acd576000858281518110610a0757610a07611902565b602002602001015190506000858381518110610a2557610a25611902565b602090810291909101810151600084815280835260408082206001600160a01b038e168352909352919091205490915081811015610a755760405162461bcd60e51b815260040161031f90611b05565b6000838152602081815260408083206001600160a01b038e8116855292528083208585039055908b16825281208054849290610ab2908490611aad565b9250508190555050505080610ac690611939565b90506109ea565b50846001600160a01b0316866001600160a01b0316826001600160a01b03167f4a39dc06d4c0dbc64b70af90fd698a233a518aa5d07e595d983b8c0526c8f7fb8787604051610b1d929190611b4f565b60405180910390a4610b33818787878787610f05565b505050505050565b6003546001600160a01b0316331461065b5760405162461bcd60e51b815260206004820181905260248201527f4f776e61626c653a2063616c6c6572206973206e6f7420746865206f776e6572604482015260640161031f565b600380546001600160a01b038381166001600160a01b0319831681179093556040519116919082907f8be0079c531659141344cd1fd0a4f28419497f9722a3daafe3b4186f6b6457e090600090a35050565b6001600160a01b038416610c475760405162461bcd60e51b815260206004820152602160248201527f455243313135353a206d696e7420746f20746865207a65726f206164647265736044820152607360f81b606482015260840161031f565b336000610c5385611060565b90506000610c6085611060565b90506000868152602081815260408083206001600160a01b038b16845290915281208054879290610c92908490611aad565b909155505060408051878152602081018790526001600160a01b03808a1692600092918716917fc3d58168c5ae7397731d063d5bbf3d657854427343f4c083240f7aacaa2d0f62910160405180910390a4610cf2836000898989896110ab565b50505050505050565b816001600160a01b0316836001600160a01b031603610d6e5760405162461bcd60e51b815260206004820152602960248201527f455243313135353a2073657474696e6720617070726f76616c20737461747573604482015268103337b91039b2b63360b91b606482015260840161031f565b6001600160a01b03838116600081815260016020908152604080832094871680845294825291829020805460ff191686151590811790915591519182527f17307eab39ab6107e8899845ad3d59bd9653f200f220920489ca2b5937696c31910160405180910390a3505050565b6001600160a01b038416610e015760405162461bcd60e51b815260040161031f90611ac0565b336000610e0d85611060565b90506000610e1a85611060565b90506000868152602081815260408083206001600160a01b038c16845290915290205485811015610e5d5760405162461bcd60e51b815260040161031f90611b05565b6000878152602081815260408083206001600160a01b038d8116855292528083208985039055908a16825281208054889290610e9a908490611aad565b909155505060408051888152602081018890526001600160a01b03808b16928c821692918816917fc3d58168c5ae7397731d063d5bbf3d657854427343f4c083240f7aacaa2d0f62910160405180910390a4610efa848a8a8a8a8a6110ab565b505050505050505050565b6001600160a01b0384163b15610b335760405163bc197c8160e01b81526001600160a01b0385169063bc197c8190610f499089908990889088908890600401611b7d565b6020604051808303816000875af1925050508015610f84575060408051601f3d908101601f19168201909252610f8191810190611bdb565b60015b61103057610f90611bf8565b806308c379a003610fc95750610fa4611c14565b80610faf5750610fcb565b8060405162461bcd60e51b815260040161031f919061124f565b505b60405162461bcd60e51b815260206004820152603460248201527f455243313135353a207472616e7366657220746f206e6f6e20455243313135356044820152732932b1b2b4bb32b91034b6b83632b6b2b73a32b960611b606482015260840161031f565b6001600160e01b0319811663bc197c8160e01b14610cf25760405162461bcd60e51b815260040161031f90611c9d565b6040805160018082528183019092526060916000919060208083019080368337019050509050828160008151811061109a5761109a611902565b602090810291909101015292915050565b6001600160a01b0384163b15610b335760405163f23a6e6160e01b81526001600160a01b0385169063f23a6e61906110ef9089908990889088908890600401611ce5565b6020604051808303816000875af192505050801561112a575060408051601f3d908101601f1916820190925261112791810190611bdb565b60015b61113657610f90611bf8565b6001600160e01b0319811663f23a6e6160e01b14610cf25760405162461bcd60e51b815260040161031f90611c9d565b80356001600160a01b038116811461117d57600080fd5b919050565b6000806040838503121561119557600080fd5b61119e83611166565b946020939093013593505050565b6001600160e01b03198116811461084a57600080fd5b6000602082840312156111d457600080fd5b81356111df816111ac565b9392505050565b6000602082840312156111f857600080fd5b5035919050565b60005b8381101561121a578181015183820152602001611202565b50506000910152565b6000815180845261123b8160208601602086016111ff565b601f01601f19169290920160200192915050565b6020815260006111df6020830184611223565b634e487b7160e01b600052604160045260246000fd5b601f8201601f191681016001600160401b038111828210171561129d5761129d611262565b6040525050565b60006001600160401b038211156112bd576112bd611262565b5060051b60200190565b600082601f8301126112d857600080fd5b813560206112e5826112a4565b6040516112f28282611278565b83815260059390931b850182019282810191508684111561131257600080fd5b8286015b8481101561132d5780358352918301918301611316565b509695505050505050565b600082601f83011261134957600080fd5b81356001600160401b0381111561136257611362611262565b604051611379601f8301601f191660200182611278565b81815284602083860101111561138e57600080fd5b816020850160208301376000918101602001919091529392505050565b600080600080600060a086880312156113c357600080fd5b6113cc86611166565b94506113da60208701611166565b935060408601356001600160401b03808211156113f657600080fd5b61140289838a016112c7565b9450606088013591508082111561141857600080fd5b61142489838a016112c7565b9350608088013591508082111561143a57600080fd5b5061144788828901611338565b9150509295509295909350565b60006020828403121561146657600080fd5b6111df82611166565b60006020828403121561148157600080fd5b813561ffff811681146111df57600080fd5b600081518084526020808501945080840160005b838110156114c3578151875295820195908201906001016114a7565b509495945050505050565b6020815260006111df6020830184611493565b600080604083850312156114f457600080fd5b82356001600160401b038082111561150b57600080fd5b818501915085601f83011261151f57600080fd5b8135602061152c826112a4565b6040516115398282611278565b83815260059390931b850182019282810191508984111561155957600080fd5b948201945b8386101561157e5761156f86611166565b8252948201949082019061155e565b9650508601359250508082111561159457600080fd5b506115a1858286016112c7565b9150509250929050565b60008083601f8401126115bd57600080fd5b5081356001600160401b038111156115d457600080fd5b6020830191508360208285010111156115ec57600080fd5b9250929050565b60008060008060006080868803121561160b57600080fd5b61161486611166565b9450602086013593506040860135925060608601356001600160401b0381111561163d57600080fd5b611649888289016115ab565b969995985093965092949392505050565b6000806040838503121561166d57600080fd5b61167683611166565b91506020830135801515811461168b57600080fd5b809150509250929050565b600080604083850312156116a957600080fd5b6116b283611166565b91506116c060208401611166565b90509250929050565b600080600080600060a086880312156116e157600080fd5b6116ea86611166565b94506116f860208701611166565b9350604086013592506060860135915060808601356001600160401b0381111561172157600080fd5b61144788828901611338565b6000806020838503121561174057600080fd5b82356001600160401b0381111561175657600080fd5b611762858286016115ab565b90969095509350505050565b600181811c9082168061178257607f821691505b6020821081036117a257634e487b7160e01b600052602260045260246000fd5b50919050565b600081516117ba8185602086016111ff565b9290920192915050565b66697066733a2f2f60c81b815260006007600085546117e28161176e565b600182811680156117fa576001811461181357611846565b60ff198416888701528215158302880186019450611846565b8960005260208060002060005b8581101561183b5781548b82018a0152908401908201611820565b505050858389010194505b50602f60f81b845261186e61185d8286018a6117a8565b64173539b7b760d91b815260050190565b9998505050505050505050565b6020808252602f908201527f455243313135353a2063616c6c6572206973206e6f7420746f6b656e206f776e60408201526e195c881b9bdc88185c1c1c9bdd9959608a1b606082015260800190565b634e487b7160e01b600052601160045260246000fd5b61ffff8181168382160190808211156118fb576118fb6118ca565b5092915050565b634e487b7160e01b600052603260045260246000fd5b600061ffff80831681810361192f5761192f6118ca565b6001019392505050565b60006001820161194b5761194b6118ca565b5060010190565b601f82111561199857600081815260208120601f850160051c810160208610156119795750805b601f850160051c820191505b81811015610b3357828155600101611985565b505050565b6001600160401b038311156119b4576119b4611262565b6119c8836119c2835461176e565b83611952565b6000601f8411600181146119fc57600085156119e45750838201355b600019600387901b1c1916600186901b178355610434565b600083815260209020601f19861690835b82811015611a2d5786850135825560209485019460019092019101611a0d565b5086821015611a4a5760001960f88860031b161c19848701351681555b505060018560011b0183555050505050565b634e487b7160e01b600052601260045260246000fd5b600082611a8157611a81611a5c565b500490565b8181038181111561034b5761034b6118ca565b600082611aa857611aa8611a5c565b500690565b8082018082111561034b5761034b6118ca565b60208082526025908201527f455243313135353a207472616e7366657220746f20746865207a65726f206164604082015264647265737360d81b606082015260800190565b6020808252602a908201527f455243313135353a20696e73756666696369656e742062616c616e636520666f60408201526939103a3930b739b332b960b11b606082015260800190565b604081526000611b626040830185611493565b8281036020840152611b748185611493565b95945050505050565b6001600160a01b0386811682528516602082015260a060408201819052600090611ba990830186611493565b8281036060840152611bbb8186611493565b90508281036080840152611bcf8185611223565b98975050505050505050565b600060208284031215611bed57600080fd5b81516111df816111ac565b600060033d1115611c115760046000803e5060005160e01c5b90565b600060443d1015611c225790565b6040516003193d81016004833e81513d6001600160401b038160248401118184111715611c5157505050505090565b8285019150815181811115611c695750505050505090565b843d8701016020828501011115611c835750505050505090565b611c9260208286010187611278565b509095945050505050565b60208082526028908201527f455243313135353a204552433131353552656365697665722072656a656374656040820152676420746f6b656e7360c01b606082015260800190565b6001600160a01b03868116825285166020820152604081018490526060810183905260a060808201819052600090611d1f90830184611223565b97965050505050505056fea26469706673582212209a7b9571d6cc461fb99ede6669830b87212ef83ff3621a8c392cb9992188aedb64736f6c63430008100033",
  "devdoc": {
    "kind": "dev",
    "methods": {
      "balanceOf(address,uint256)": {
        "details": "See {IERC1155-balanceOf}. Requirements: - `account` cannot be the zero address."
      },
      "balanceOfBatch(address[],uint256[])": {
        "details": "See {IERC1155-balanceOfBatch}. Requirements: - `accounts` and `ids` must have the same length."
      },
      "isApprovedForAll(address,address)": {
        "details": "See {IERC1155-isApprovedForAll}."
      },
      "owner()": {
        "details": "Returns the address of the current owner."
      },
      "renounceOwnership()": {
        "details": "Leaves the contract without owner. It will not be possible to call `onlyOwner` functions anymore. Can only be called by the current owner. NOTE: Renouncing ownership will leave the contract without an owner, thereby removing any functionality that is only available to the owner."
      },
      "safeBatchTransferFrom(address,address,uint256[],uint256[],bytes)": {
        "details": "See {IERC1155-safeBatchTransferFrom}."
      },
      "safeTransferFrom(address,address,uint256,uint256,bytes)": {
        "details": "See {IERC1155-safeTransferFrom}."
      },
      "setApprovalForAll(address,bool)": {
        "details": "See {IERC1155-setApprovalForAll}."
      },
      "supportsInterface(bytes4)": {
        "details": "See {IERC165-supportsInterface}."
      },
      "transferOwnership(address)": {
        "details": "Transfers ownership of the contract to a new account (`newOwner`). Can only be called by the current owner."
      }
    },
    "version": 1
  },
  "userdoc": {
    "kind": "user",
    "methods": {},
    "version": 1
  },
  "storageLayout": {
    "storage": [
      {
        "astId": 138,
        "contract": "contracts/SnowmenGame.sol:SnowmenGame",
        "label": "_balances",
        "offset": 0,
        "slot": "0",
        "type": "t_mapping(t_uint256,t_mapping(t_address,t_uint256))"
      },
      {
        "astId": 144,
        "contract": "contracts/SnowmenGame.sol:SnowmenGame",
        "label": "_operatorApprovals",
        "offset": 0,
        "slot": "1",
        "type": "t_mapping(t_address,t_mapping(t_address,t_bool))"
      },
      {
        "astId": 146,
        "contract": "contracts/SnowmenGame.sol:SnowmenGame",
        "label": "_uri",
        "offset": 0,
        "slot": "2",
        "type": "t_string_storage"
      },
      {
        "astId": 7,
        "contract": "contracts/SnowmenGame.sol:SnowmenGame",
        "label": "_owner",
        "offset": 0,
        "slot": "3",
        "type": "t_address"
      },
      {
        "astId": 2663,
        "contract": "contracts/SnowmenGame.sol:SnowmenGame",
        "label": "atFolderId",
        "offset": 0,
        "slot": "4",
        "type": "t_struct(Counter)2316_storage"
      },
      {
        "astId": 2667,
        "contract": "contracts/SnowmenGame.sol:SnowmenGame",
        "label": "metadataHash",
        "offset": 0,
        "slot": "5",
        "type": "t_mapping(t_uint256,t_string_storage)"
      },
      {
        "astId": 2671,
        "contract": "contracts/SnowmenGame.sol:SnowmenGame",
        "label": "authorized",
        "offset": 0,
        "slot": "6",
        "type": "t_mapping(t_address,t_bool)"
      }
    ],
    "types": {
      "t_address": {
        "encoding": "inplace",
        "label": "address",
        "numberOfBytes": "20"
      },
      "t_bool": {
        "encoding": "inplace",
        "label": "bool",
        "numberOfBytes": "1"
      },
      "t_mapping(t_address,t_bool)": {
        "encoding": "mapping",
        "key": "t_address",
        "label": "mapping(address => bool)",
        "numberOfBytes": "32",
        "value": "t_bool"
      },
      "t_mapping(t_address,t_mapping(t_address,t_bool))": {
        "encoding": "mapping",
        "key": "t_address",
        "label": "mapping(address => mapping(address => bool))",
        "numberOfBytes": "32",
        "value": "t_mapping(t_address,t_bool)"
      },
      "t_mapping(t_address,t_uint256)": {
        "encoding": "mapping",
        "key": "t_address",
        "label": "mapping(address => uint256)",
        "numberOfBytes": "32",
        "value": "t_uint256"
      },
      "t_mapping(t_uint256,t_mapping(t_address,t_uint256))": {
        "encoding": "mapping",
        "key": "t_uint256",
        "label": "mapping(uint256 => mapping(address => uint256))",
        "numberOfBytes": "32",
        "value": "t_mapping(t_address,t_uint256)"
      },
      "t_mapping(t_uint256,t_string_storage)": {
        "encoding": "mapping",
        "key": "t_uint256",
        "label": "mapping(uint256 => string)",
        "numberOfBytes": "32",
        "value": "t_string_storage"
      },
      "t_string_storage": {
        "encoding": "bytes",
        "label": "string",
        "numberOfBytes": "32"
      },
      "t_struct(Counter)2316_storage": {
        "encoding": "inplace",
        "label": "struct Counters.Counter",
        "members": [
          {
            "astId": 2315,
            "contract": "contracts/SnowmenGame.sol:SnowmenGame",
            "label": "_value",
            "offset": 0,
            "slot": "0",
            "type": "t_uint256"
          }
        ],
        "numberOfBytes": "32"
      },
      "t_uint256": {
        "encoding": "inplace",
        "label": "uint256",
        "numberOfBytes": "32"
      }
    }
  }
}