{
  "address": "0x6b3CFCF5fBF6D9AceD6051A40424eC78A0c56B1c",
  "abi": [
    {
      "inputs": [
        {
          "internalType": "address",
          "name": "snowmenErc1155",
          "type": "address"
        },
        {
          "internalType": "address",
          "name": "snowmenErc20",
          "type": "address"
        }
      ],
      "stateMutability": "nonpayable",
      "type": "constructor"
    },
    {
      "anonymous": false,
      "inputs": [
        {
          "indexed": true,
          "internalType": "address",
          "name": "buyer",
          "type": "address"
        },
        {
          "indexed": false,
          "internalType": "uint256",
          "name": "tokenId",
          "type": "uint256"
        },
        {
          "indexed": false,
          "internalType": "uint256",
          "name": "amount",
          "type": "uint256"
        },
        {
          "indexed": false,
          "internalType": "uint256",
          "name": "timestamp",
          "type": "uint256"
        }
      ],
      "name": "BuyItem",
      "type": "event"
    },
    {
      "anonymous": false,
      "inputs": [
        {
          "indexed": true,
          "internalType": "address",
          "name": "buyer",
          "type": "address"
        },
        {
          "indexed": false,
          "internalType": "uint256",
          "name": "timestamp",
          "type": "uint256"
        }
      ],
      "name": "BuyTicket",
      "type": "event"
    },
    {
      "anonymous": false,
      "inputs": [
        {
          "indexed": true,
          "internalType": "address",
          "name": "previousOwner",
          "type": "address"
        },
        {
          "indexed": true,
          "internalType": "address",
          "name": "newOwner",
          "type": "address"
        }
      ],
      "name": "OwnershipTransferred",
      "type": "event"
    },
    {
      "anonymous": false,
      "inputs": [
        {
          "indexed": false,
          "internalType": "uint256",
          "name": "tokenId",
          "type": "uint256"
        },
        {
          "indexed": false,
          "internalType": "uint256",
          "name": "price",
          "type": "uint256"
        },
        {
          "indexed": false,
          "internalType": "uint256",
          "name": "timestamp",
          "type": "uint256"
        }
      ],
      "name": "SetPrice",
      "type": "event"
    },
    {
      "anonymous": false,
      "inputs": [
        {
          "indexed": false,
          "internalType": "address",
          "name": "owner",
          "type": "address"
        },
        {
          "indexed": false,
          "internalType": "uint256",
          "name": "amount",
          "type": "uint256"
        }
      ],
      "name": "Withdraw",
      "type": "event"
    },
    {
      "anonymous": false,
      "inputs": [
        {
          "indexed": false,
          "internalType": "address",
          "name": "operator",
          "type": "address"
        },
        {
          "indexed": false,
          "internalType": "address",
          "name": "from",
          "type": "address"
        },
        {
          "indexed": false,
          "internalType": "uint256",
          "name": "id",
          "type": "uint256"
        },
        {
          "indexed": false,
          "internalType": "uint256",
          "name": "value",
          "type": "uint256"
        }
      ],
      "name": "onERC1155ReceivedExecuted",
      "type": "event"
    },
    {
      "inputs": [
        {
          "internalType": "uint256",
          "name": "tokenId",
          "type": "uint256"
        },
        {
          "internalType": "uint256",
          "name": "amount",
          "type": "uint256"
        }
      ],
      "name": "buyItem",
      "outputs": [],
      "stateMutability": "nonpayable",
      "type": "function"
    },
    {
      "inputs": [],
      "name": "buyTicket",
      "outputs": [],
      "stateMutability": "payable",
      "type": "function"
    },
    {
      "inputs": [],
      "name": "getBalance",
      "outputs": [
        {
          "internalType": "uint256",
          "name": "",
          "type": "uint256"
        }
      ],
      "stateMutability": "view",
      "type": "function"
    },
    {
      "inputs": [
        {
          "internalType": "address",
          "name": "",
          "type": "address"
        },
        {
          "internalType": "address",
          "name": "",
          "type": "address"
        },
        {
          "internalType": "uint256[]",
          "name": "",
          "type": "uint256[]"
        },
        {
          "internalType": "uint256[]",
          "name": "",
          "type": "uint256[]"
        },
        {
          "internalType": "bytes",
          "name": "",
          "type": "bytes"
        }
      ],
      "name": "onERC1155BatchReceived",
      "outputs": [
        {
          "internalType": "bytes4",
          "name": "",
          "type": "bytes4"
        }
      ],
      "stateMutability": "nonpayable",
      "type": "function"
    },
    {
      "inputs": [
        {
          "internalType": "address",
          "name": "operator",
          "type": "address"
        },
        {
          "internalType": "address",
          "name": "from",
          "type": "address"
        },
        {
          "internalType": "uint256",
          "name": "id",
          "type": "uint256"
        },
        {
          "internalType": "uint256",
          "name": "value",
          "type": "uint256"
        },
        {
          "internalType": "bytes",
          "name": "",
          "type": "bytes"
        }
      ],
      "name": "onERC1155Received",
      "outputs": [
        {
          "internalType": "bytes4",
          "name": "",
          "type": "bytes4"
        }
      ],
      "stateMutability": "nonpayable",
      "type": "function"
    },
    {
      "inputs": [],
      "name": "owner",
      "outputs": [
        {
          "internalType": "address",
          "name": "",
          "type": "address"
        }
      ],
      "stateMutability": "view",
      "type": "function"
    },
    {
      "inputs": [],
      "name": "renounceOwnership",
      "outputs": [],
      "stateMutability": "nonpayable",
      "type": "function"
    },
    {
      "inputs": [
        {
          "internalType": "uint256",
          "name": "tokenId",
          "type": "uint256"
        },
        {
          "internalType": "uint256",
          "name": "price",
          "type": "uint256"
        }
      ],
      "name": "setPrice",
      "outputs": [],
      "stateMutability": "nonpayable",
      "type": "function"
    },
    {
      "inputs": [],
      "name": "snowmenGame",
      "outputs": [
        {
          "internalType": "contract IERC1155",
          "name": "",
          "type": "address"
        }
      ],
      "stateMutability": "view",
      "type": "function"
    },
    {
      "inputs": [],
      "name": "snowmenToken",
      "outputs": [
        {
          "internalType": "contract IERC20",
          "name": "",
          "type": "address"
        }
      ],
      "stateMutability": "view",
      "type": "function"
    },
    {
      "inputs": [
        {
          "internalType": "bytes4",
          "name": "interfaceId",
          "type": "bytes4"
        }
      ],
      "name": "supportsInterface",
      "outputs": [
        {
          "internalType": "bool",
          "name": "",
          "type": "bool"
        }
      ],
      "stateMutability": "view",
      "type": "function"
    },
    {
      "inputs": [
        {
          "internalType": "uint256",
          "name": "",
          "type": "uint256"
        }
      ],
      "name": "tokenPrice",
      "outputs": [
        {
          "internalType": "uint256",
          "name": "",
          "type": "uint256"
        }
      ],
      "stateMutability": "view",
      "type": "function"
    },
    {
      "inputs": [
        {
          "internalType": "address",
          "name": "newOwner",
          "type": "address"
        }
      ],
      "name": "transferOwnership",
      "outputs": [],
      "stateMutability": "nonpayable",
      "type": "function"
    },
    {
      "inputs": [],
      "name": "withdraw",
      "outputs": [],
      "stateMutability": "nonpayable",
      "type": "function"
    }
  ],
  "transactionHash": "0x558a96891f0bb5d52fa03738b13616a54922cb76ca316e89c019434e26d20b53",
  "args": [
    "0x62C1aef7FE1999752E34A1cE96109752793215F3",
    "0x6048443220Af57898B65d5A5f3d63D01CC76D70d"
  ],
  "numDeployments": 1,
  "solcInputHash": "41ccdb20430718f7f49f8b79f32dc4d0",
  "bytecode": "0x608060405234801561001057600080fd5b506040516200141938038062001419833981016040819052610031916100d7565b61003a3361006b565b600280546001600160a01b039384166001600160a01b0319918216179091556001805492909316911617905561010a565b600080546001600160a01b038381166001600160a01b0319831681178455604051919092169283917f8be0079c531659141344cd1fd0a4f28419497f9722a3daafe3b4186f6b6457e09190a35050565b80516001600160a01b03811681146100d257600080fd5b919050565b600080604083850312156100ea57600080fd5b6100f3836100bb565b9150610101602084016100bb565b90509250929050565b6112ff806200011a6000396000f3fe6080604052600436106100dd5760003560e01c8063bc197c811161007f578063edca914c11610059578063edca914c14610268578063f23a6e6114610270578063f2fde38b14610290578063f7d97577146102b057600080fd5b8063bc197c81146101d6578063d4ddce8a1461021b578063ea75aa8f1461024857600080fd5b80633ccfd60b116100bb5780633ccfd60b1461016c578063715018a6146101835780638da5cb5b146101985780639979c009146101b657600080fd5b806301ffc9a7146100e257806312065fe0146101175780632c1449e114610134575b600080fd5b3480156100ee57600080fd5b506101026100fd366004610f44565b6102d0565b60405190151581526020015b60405180910390f35b34801561012357600080fd5b50475b60405190815260200161010e565b34801561014057600080fd5b50600154610154906001600160a01b031681565b6040516001600160a01b03909116815260200161010e565b34801561017857600080fd5b506101816102fb565b005b34801561018f57600080fd5b5061018161041f565b3480156101a457600080fd5b506000546001600160a01b0316610154565b3480156101c257600080fd5b506101816101d1366004610f6e565b610433565b3480156101e257600080fd5b506102026101f13660046110d8565b63bc197c8160e01b95945050505050565b6040516001600160e01b0319909116815260200161010e565b34801561022757600080fd5b50610126610236366004611182565b60036020526000908152604090205481565b34801561025457600080fd5b50600254610154906001600160a01b031681565b6101816107fa565b34801561027c57600080fd5b5061020261028b36600461119b565b61095f565b34801561029c57600080fd5b506101816102ab366004611200565b610a56565b3480156102bc57600080fd5b506101816102cb366004610f6e565b610acf565b60006001600160e01b03198216630271189760e51b14806102f557506102f582610bab565b92915050565b610303610be0565b4760008190036103505760405162461bcd60e51b81526020600482015260136024820152721a5b9cdd59999a58da595b9d08185b5bdd5b9d606a1b60448201526064015b60405180910390fd5b604051600090339083908381818185875af1925050503d8060008114610392576040519150601f19603f3d011682016040523d82523d6000602084013e610397565b606091505b50509050806103e15760405162461bcd60e51b81526020600482015260166024820152750eadcc2c4d8ca40e8de40eed2e8d0c8e4c2ee40cae8d60531b6044820152606401610347565b60408051338152602081018490527f884edad9ce6fa2440d8a54cc123490eb96d2768479d49ff9c7366125a942436491015b60405180910390a15050565b610427610be0565b6104316000610c3a565b565b6000828152600360205260408120543391036104855760405162461bcd60e51b81526020600482015260116024820152701c1c9a58d9481b9bdd081cd95d081e595d607a1b6044820152606401610347565b6000838152600360205260409020548210156104d75760405162461bcd60e51b81526020600482015260116024820152700c2dadeeadce840dcdee840cadcdeeaced607b1b6044820152606401610347565b600254604051627eeac760e11b8152306004820152602481018590526001916001600160a01b03169062fdd58e90604401602060405180830381865afa158015610525573d6000803e3d6000fd5b505050506040513d601f19601f82011682018060405250810190610549919061121b565b101561058c5760405162461bcd60e51b81526020600482015260126024820152710c4c2d8c2dcc6ca40dcdee840cadcdeeaced60731b6044820152606401610347565b6001546040516370a0823160e01b81526001600160a01b038381166004830152849216906370a0823190602401602060405180830381865afa1580156105d6573d6000803e3d6000fd5b505050506040513d601f19601f820116820180604052508101906105fa919061121b565b101561063d5760405162461bcd60e51b815260206004820152601260248201527134b739bab33334b1b4b2b73a103a37b5b2b760711b6044820152606401610347565b600154604051636eb1769f60e11b81526001600160a01b0383811660048301523060248301528492169063dd62ed3e90604401602060405180830381865afa15801561068d573d6000803e3d6000fd5b505050506040513d601f19601f820116820180604052508101906106b1919061121b565b10156106ff5760405162461bcd60e51b815260206004820152601b60248201527f696e73756666696369656e7420746f6b656e20617070726f76616c00000000006044820152606401610347565b610729816107156000546001600160a01b031690565b6001546001600160a01b0316919085610c8a565b600254604051637921219560e11b81523060048201526001600160a01b038381166024830152604482018690526001606483015260a06084830152600060a48301529091169063f242432a9060c401600060405180830381600087803b15801561079257600080fd5b505af11580156107a6573d6000803e3d6000fd5b50506040805186815260208101869052428183015290516001600160a01b03851693507f75b2e59e11f908cb424d07858db7152a4b973814354a5bfe043dda59966d9bed92509081900360600190a2505050565b662386f26fc100003410156108445760405162461bcd60e51b815260206004820152601060248201526f0e0e4d2c6ca40dcdee840cadcdeeaced60831b6044820152606401610347565b600254604051336024820152600160801b6044820152600160648201526000916001600160a01b03169060840160408051601f198184030181529181526020820180516001600160e01b0316630ab714fb60e11b179052516108a69190611258565b6000604051808303816000865af19150503d80600081146108e3576040519150601f19603f3d011682016040523d82523d6000602084013e6108e8565b606091505b50509050806109275760405162461bcd60e51b815260206004820152600b60248201526a1b5a5b9d0819985a5b195960aa1b6044820152606401610347565b60405142815233907f2a3164428cba5dad15f5ffe47e10cbefdcbbe9e269fd482753982ee8b2648c3e9060200160405180910390a250565b6002546000906001600160a01b031633146109af5760405162461bcd60e51b815260206004820152601060248201526f34b731b7b93932b1ba1039b2b73232b960811b6044820152606401610347565b826000036109f25760405162461bcd60e51b815260206004820152601060248201526f7175616e74697479206973207a65726f60801b6044820152606401610347565b604080516001600160a01b03808916825287166020820152908101859052606081018490527f1650d49bac940346e34bac1dde642598b57ba618d7a0c005a91257851cae2c249060800160405180910390a15063f23a6e6160e01b95945050505050565b610a5e610be0565b6001600160a01b038116610ac35760405162461bcd60e51b815260206004820152602660248201527f4f776e61626c653a206e6577206f776e657220697320746865207a65726f206160448201526564647265737360d01b6064820152608401610347565b610acc81610c3a565b50565b610ad7610be0565b81600003610b195760405162461bcd60e51b815260206004820152600f60248201526e746f6b656e4964206973207a65726f60881b6044820152606401610347565b80600003610b595760405162461bcd60e51b815260206004820152600d60248201526c7072696365206973207a65726f60981b6044820152606401610347565b600082815260036020908152604091829020839055815184815290810183905242918101919091527f18e75bb8c091a6448c12a2023f055b2714c151b941a91df8b9938788769ffe1390606001610413565b60006001600160e01b03198216630271189760e51b14806102f557506301ffc9a760e01b6001600160e01b03198316146102f5565b6000546001600160a01b031633146104315760405162461bcd60e51b815260206004820181905260248201527f4f776e61626c653a2063616c6c6572206973206e6f7420746865206f776e65726044820152606401610347565b600080546001600160a01b038381166001600160a01b0319831681178455604051919092169283917f8be0079c531659141344cd1fd0a4f28419497f9722a3daafe3b4186f6b6457e09190a35050565b604080516001600160a01b0385811660248301528416604482015260648082018490528251808303909101815260849091019091526020810180516001600160e01b03166323b872dd60e01b179052610ce4908590610cea565b50505050565b6000610d3f826040518060400160405280602081526020017f5361666545524332303a206c6f772d6c6576656c2063616c6c206661696c6564815250856001600160a01b0316610dc19092919063ffffffff16565b805190915015610dbc5780806020019051810190610d5d9190611274565b610dbc5760405162461bcd60e51b815260206004820152602a60248201527f5361666545524332303a204552433230206f7065726174696f6e20646964206e6044820152691bdd081cdd58d8d9595960b21b6064820152608401610347565b505050565b6060610dd08484600085610dda565b90505b9392505050565b606082471015610e3b5760405162461bcd60e51b815260206004820152602660248201527f416464726573733a20696e73756666696369656e742062616c616e636520666f6044820152651c8818d85b1b60d21b6064820152608401610347565b6001600160a01b0385163b610e925760405162461bcd60e51b815260206004820152601d60248201527f416464726573733a2063616c6c20746f206e6f6e2d636f6e74726163740000006044820152606401610347565b600080866001600160a01b03168587604051610eae9190611258565b60006040518083038185875af1925050503d8060008114610eeb576040519150601f19603f3d011682016040523d82523d6000602084013e610ef0565b606091505b5091509150610f00828286610f0b565b979650505050505050565b60608315610f1a575081610dd3565b825115610f2a5782518084602001fd5b8160405162461bcd60e51b81526004016103479190611296565b600060208284031215610f5657600080fd5b81356001600160e01b031981168114610dd357600080fd5b60008060408385031215610f8157600080fd5b50508035926020909101359150565b80356001600160a01b0381168114610fa757600080fd5b919050565b634e487b7160e01b600052604160045260246000fd5b604051601f8201601f1916810167ffffffffffffffff81118282101715610feb57610feb610fac565b604052919050565b600082601f83011261100457600080fd5b8135602067ffffffffffffffff82111561102057611020610fac565b8160051b61102f828201610fc2565b928352848101820192828101908785111561104957600080fd5b83870192505b84831015610f005782358252918301919083019061104f565b600082601f83011261107957600080fd5b813567ffffffffffffffff81111561109357611093610fac565b6110a6601f8201601f1916602001610fc2565b8181528460208386010111156110bb57600080fd5b816020850160208301376000918101602001919091529392505050565b600080600080600060a086880312156110f057600080fd5b6110f986610f90565b945061110760208701610f90565b9350604086013567ffffffffffffffff8082111561112457600080fd5b61113089838a01610ff3565b9450606088013591508082111561114657600080fd5b61115289838a01610ff3565b9350608088013591508082111561116857600080fd5b5061117588828901611068565b9150509295509295909350565b60006020828403121561119457600080fd5b5035919050565b600080600080600060a086880312156111b357600080fd5b6111bc86610f90565b94506111ca60208701610f90565b93506040860135925060608601359150608086013567ffffffffffffffff8111156111f457600080fd5b61117588828901611068565b60006020828403121561121257600080fd5b610dd382610f90565b60006020828403121561122d57600080fd5b5051919050565b60005b8381101561124f578181015183820152602001611237565b50506000910152565b6000825161126a818460208701611234565b9190910192915050565b60006020828403121561128657600080fd5b81518015158114610dd357600080fd5b60208152600082518060208401526112b5816040850160208701611234565b601f01601f1916919091016040019291505056fea264697066735822122068c7c64b81edb267f5ecc5cf7910f693822eef8c3076a541f5b327c76424710964736f6c63430008100033",
  "devdoc": {
    "kind": "dev",
    "methods": {
      "owner()": {
        "details": "Returns the address of the current owner."
      },
      "renounceOwnership()": {
        "details": "Leaves the contract without owner. It will not be possible to call `onlyOwner` functions anymore. Can only be called by the current owner. NOTE: Renouncing ownership will leave the contract without an owner, thereby removing any functionality that is only available to the owner."
      },
      "supportsInterface(bytes4)": {
        "details": "See {IERC165-supportsInterface}."
      },
      "transferOwnership(address)": {
        "details": "Transfers ownership of the contract to a new account (`newOwner`). Can only be called by the current owner."
      }
    },
    "version": 1
  },
  "userdoc": {
    "kind": "user",
    "methods": {},
    "version": 1
  },
  "storageLayout": {
    "storage": [
      {
        "astId": 7,
        "contract": "contracts/SnowmenSales.sol:SnowmenSales",
        "label": "_owner",
        "offset": 0,
        "slot": "0",
        "type": "t_address"
      },
      {
        "astId": 1125,
        "contract": "contracts/SnowmenSales.sol:SnowmenSales",
        "label": "snowmenToken",
        "offset": 0,
        "slot": "1",
        "type": "t_contract(IERC20)438"
      },
      {
        "astId": 1128,
        "contract": "contracts/SnowmenSales.sol:SnowmenSales",
        "label": "snowmenGame",
        "offset": 0,
        "slot": "2",
        "type": "t_contract(IERC1155)234"
      },
      {
        "astId": 1141,
        "contract": "contracts/SnowmenSales.sol:SnowmenSales",
        "label": "tokenPrice",
        "offset": 0,
        "slot": "3",
        "type": "t_mapping(t_uint256,t_uint256)"
      }
    ],
    "types": {
      "t_address": {
        "encoding": "inplace",
        "label": "address",
        "numberOfBytes": "20"
      },
      "t_contract(IERC1155)234": {
        "encoding": "inplace",
        "label": "contract IERC1155",
        "numberOfBytes": "20"
      },
      "t_contract(IERC20)438": {
        "encoding": "inplace",
        "label": "contract IERC20",
        "numberOfBytes": "20"
      },
      "t_mapping(t_uint256,t_uint256)": {
        "encoding": "mapping",
        "key": "t_uint256",
        "label": "mapping(uint256 => uint256)",
        "numberOfBytes": "32",
        "value": "t_uint256"
      },
      "t_uint256": {
        "encoding": "inplace",
        "label": "uint256",
        "numberOfBytes": "32"
      }
    }
  }
}