{
  "address": "0x62C1aef7FE1999752E34A1cE96109752793215F3",
  "abi": [
    {
      "inputs": [],
      "stateMutability": "nonpayable",
      "type": "constructor"
    },
    {
      "anonymous": false,
      "inputs": [
        {
          "indexed": true,
          "internalType": "address",
          "name": "account",
          "type": "address"
        },
        {
          "indexed": true,
          "internalType": "address",
          "name": "operator",
          "type": "address"
        },
        {
          "indexed": false,
          "internalType": "bool",
          "name": "approved",
          "type": "bool"
        }
      ],
      "name": "ApprovalForAll",
      "type": "event"
    },
    {
      "anonymous": false,
      "inputs": [
        {
          "indexed": true,
          "internalType": "address",
          "name": "previousOwner",
          "type": "address"
        },
        {
          "indexed": true,
          "internalType": "address",
          "name": "newOwner",
          "type": "address"
        }
      ],
      "name": "OwnershipTransferred",
      "type": "event"
    },
    {
      "anonymous": false,
      "inputs": [
        {
          "indexed": true,
          "internalType": "address",
          "name": "operator",
          "type": "address"
        },
        {
          "indexed": true,
          "internalType": "address",
          "name": "from",
          "type": "address"
        },
        {
          "indexed": true,
          "internalType": "address",
          "name": "to",
          "type": "address"
        },
        {
          "indexed": false,
          "internalType": "uint256[]",
          "name": "ids",
          "type": "uint256[]"
        },
        {
          "indexed": false,
          "internalType": "uint256[]",
          "name": "values",
          "type": "uint256[]"
        }
      ],
      "name": "TransferBatch",
      "type": "event"
    },
    {
      "anonymous": false,
      "inputs": [
        {
          "indexed": true,
          "internalType": "address",
          "name": "operator",
          "type": "address"
        },
        {
          "indexed": true,
          "internalType": "address",
          "name": "from",
          "type": "address"
        },
        {
          "indexed": true,
          "internalType": "address",
          "name": "to",
          "type": "address"
        },
        {
          "indexed": false,
          "internalType": "uint256",
          "name": "id",
          "type": "uint256"
        },
        {
          "indexed": false,
          "internalType": "uint256",
          "name": "value",
          "type": "uint256"
        }
      ],
      "name": "TransferSingle",
      "type": "event"
    },
    {
      "anonymous": false,
      "inputs": [
        {
          "indexed": false,
          "internalType": "string",
          "name": "value",
          "type": "string"
        },
        {
          "indexed": true,
          "internalType": "uint256",
          "name": "id",
          "type": "uint256"
        }
      ],
      "name": "URI",
      "type": "event"
    },
    {
      "inputs": [
        {
          "internalType": "address",
          "name": "authorized",
          "type": "address"
        }
      ],
      "name": "addAuthorized",
      "outputs": [],
      "stateMutability": "nonpayable",
      "type": "function"
    },
    {
      "inputs": [],
      "name": "atFolderId",
      "outputs": [
        {
          "internalType": "uint256",
          "name": "_value",
          "type": "uint256"
        }
      ],
      "stateMutability": "view",
      "type": "function"
    },
    {
      "inputs": [
        {
          "internalType": "address",
          "name": "account",
          "type": "address"
        },
        {
          "internalType": "uint256",
          "name": "id",
          "type": "uint256"
        }
      ],
      "name": "balanceOf",
      "outputs": [
        {
          "internalType": "uint256",
          "name": "",
          "type": "uint256"
        }
      ],
      "stateMutability": "view",
      "type": "function"
    },
    {
      "inputs": [
        {
          "internalType": "address[]",
          "name": "accounts",
          "type": "address[]"
        },
        {
          "internalType": "uint256[]",
          "name": "ids",
          "type": "uint256[]"
        }
      ],
      "name": "balanceOfBatch",
      "outputs": [
        {
          "internalType": "uint256[]",
          "name": "",
          "type": "uint256[]"
        }
      ],
      "stateMutability": "view",
      "type": "function"
    },
    {
      "inputs": [
        {
          "internalType": "string",
          "name": "hash",
          "type": "string"
        }
      ],
      "name": "confirmUpload",
      "outputs": [],
      "stateMutability": "nonpayable",
      "type": "function"
    },
    {
      "inputs": [
        {
          "internalType": "uint256",
          "name": "id",
          "type": "uint256"
        }
      ],
      "name": "exists",
      "outputs": [
        {
          "internalType": "bool",
          "name": "",
          "type": "bool"
        }
      ],
      "stateMutability": "view",
      "type": "function"
    },
    {
      "inputs": [
        {
          "internalType": "uint16",
          "name": "quantity",
          "type": "uint16"
        }
      ],
      "name": "getIds",
      "outputs": [
        {
          "internalType": "uint256[]",
          "name": "",
          "type": "uint256[]"
        }
      ],
      "stateMutability": "view",
      "type": "function"
    },
    {
      "inputs": [
        {
          "internalType": "address",
          "name": "account",
          "type": "address"
        },
        {
          "internalType": "address",
          "name": "operator",
          "type": "address"
        }
      ],
      "name": "isApprovedForAll",
      "outputs": [
        {
          "internalType": "bool",
          "name": "",
          "type": "bool"
        }
      ],
      "stateMutability": "view",
      "type": "function"
    },
    {
      "inputs": [
        {
          "internalType": "address",
          "name": "beneficiary",
          "type": "address"
        },
        {
          "internalType": "uint256",
          "name": "id",
          "type": "uint256"
        },
        {
          "internalType": "uint256",
          "name": "quantity",
          "type": "uint256"
        }
      ],
      "name": "mint",
      "outputs": [],
      "stateMutability": "nonpayable",
      "type": "function"
    },
    {
      "inputs": [],
      "name": "owner",
      "outputs": [
        {
          "internalType": "address",
          "name": "",
          "type": "address"
        }
      ],
      "stateMutability": "view",
      "type": "function"
    },
    {
      "inputs": [
        {
          "internalType": "address",
          "name": "authorized",
          "type": "address"
        }
      ],
      "name": "removeAuthorized",
      "outputs": [],
      "stateMutability": "nonpayable",
      "type": "function"
    },
    {
      "inputs": [],
      "name": "renounceOwnership",
      "outputs": [],
      "stateMutability": "nonpayable",
      "type": "function"
    },
    {
      "inputs": [
        {
          "internalType": "address",
          "name": "from",
          "type": "address"
        },
        {
          "internalType": "address",
          "name": "to",
          "type": "address"
        },
        {
          "internalType": "uint256[]",
          "name": "ids",
          "type": "uint256[]"
        },
        {
          "internalType": "uint256[]",
          "name": "amounts",
          "type": "uint256[]"
        },
        {
          "internalType": "bytes",
          "name": "data",
          "type": "bytes"
        }
      ],
      "name": "safeBatchTransferFrom",
      "outputs": [],
      "stateMutability": "nonpayable",
      "type": "function"
    },
    {
      "inputs": [
        {
          "internalType": "address",
          "name": "from",
          "type": "address"
        },
        {
          "internalType": "address",
          "name": "to",
          "type": "address"
        },
        {
          "internalType": "uint256",
          "name": "id",
          "type": "uint256"
        },
        {
          "internalType": "uint256",
          "name": "amount",
          "type": "uint256"
        },
        {
          "internalType": "bytes",
          "name": "data",
          "type": "bytes"
        }
      ],
      "name": "safeTransferFrom",
      "outputs": [],
      "stateMutability": "nonpayable",
      "type": "function"
    },
    {
      "inputs": [
        {
          "internalType": "address",
          "name": "operator",
          "type": "address"
        },
        {
          "internalType": "bool",
          "name": "approved",
          "type": "bool"
        }
      ],
      "name": "setApprovalForAll",
      "outputs": [],
      "stateMutability": "nonpayable",
      "type": "function"
    },
    {
      "inputs": [
        {
          "internalType": "bytes4",
          "name": "interfaceId",
          "type": "bytes4"
        }
      ],
      "name": "supportsInterface",
      "outputs": [
        {
          "internalType": "bool",
          "name": "",
          "type": "bool"
        }
      ],
      "stateMutability": "view",
      "type": "function"
    },
    {
      "inputs": [
        {
          "internalType": "uint256",
          "name": "tokenId",
          "type": "uint256"
        }
      ],
      "name": "tokenToFolder",
      "outputs": [
        {
          "internalType": "uint256",
          "name": "",
          "type": "uint256"
        }
      ],
      "stateMutability": "pure",
      "type": "function"
    },
    {
      "inputs": [
        {
          "internalType": "uint256",
          "name": "id",
          "type": "uint256"
        }
      ],
      "name": "totalSupply",
      "outputs": [
        {
          "internalType": "uint256",
          "name": "",
          "type": "uint256"
        }
      ],
      "stateMutability": "view",
      "type": "function"
    },
    {
      "inputs": [
        {
          "internalType": "address",
          "name": "newOwner",
          "type": "address"
        }
      ],
      "name": "transferOwnership",
      "outputs": [],
      "stateMutability": "nonpayable",
      "type": "function"
    },
    {
      "inputs": [
        {
          "internalType": "uint256",
          "name": "tokenId",
          "type": "uint256"
        }
      ],
      "name": "uri",
      "outputs": [
        {
          "internalType": "string",
          "name": "",
          "type": "string"
        }
      ],
      "stateMutability": "view",
      "type": "function"
    }
  ],
  "transactionHash": "0xdc12e1fb656dc28841b4c4aa3e2947d718d3bff221dc1945f653f00666d63fb1",
  "args": [],
  "numDeployments": 1,
  "solcInputHash": "87e34e9b1e64418bb40c486588040764",
  "bytecode": "0x60806040523480156200001157600080fd5b506040805160208101909152600081526200002c8162000055565b50620000383362000067565b6200004f6005620000b960201b620008ea1760201c565b62000233565b600262000063828262000167565b5050565b600480546001600160a01b038381166001600160a01b0319831681179093556040519116919082907f8be0079c531659141344cd1fd0a4f28419497f9722a3daafe3b4186f6b6457e090600090a35050565b80546001019055565b634e487b7160e01b600052604160045260246000fd5b600181811c90821680620000ed57607f821691505b6020821081036200010e57634e487b7160e01b600052602260045260246000fd5b50919050565b601f8211156200016257600081815260208120601f850160051c810160208610156200013d5750805b601f850160051c820191505b818110156200015e5782815560010162000149565b5050505b505050565b81516001600160401b03811115620001835762000183620000c2565b6200019b81620001948454620000d8565b8462000114565b602080601f831160018114620001d35760008415620001ba5750858301515b600019600386901b1c1916600185901b1785556200015e565b600085815260208120601f198616915b828110156200020457888601518255948401946001909101908401620001e3565b5085821015620002235787850151600019600388901b60f8161c191681555b5050505050600190811b01905550565b611f3880620002436000396000f3fe608060405234801561001057600080fd5b506004361061012b5760003560e01c8063715018a6116100ad578063cf1c316a11610071578063cf1c316a1461029d578063e985e9c5146102b0578063f242432a146102ec578063f2c12a2c146102ff578063f2fde38b1461031257600080fd5b8063715018a61461023d5780638da5cb5b1461024557806390e14c7c14610260578063a22cb4651461026a578063bd85b0391461027d57600080fd5b80633a3b71fb116100f45780633a3b71fb146101c1578063485d7d94146101d55780634aa88f67146101e85780634e1273f4146102085780634f558e791461021b57600080fd5b8062fdd58e1461013057806301ffc9a7146101565780630e89341c14610179578063156e29f6146101995780632eb2c2d6146101ae575b600080fd5b61014361013e3660046113c4565b610325565b6040519081526020015b60405180910390f35b610169610164366004611404565b6103be565b604051901515815260200161014d565b61018c610187366004611428565b61040e565b60405161014d9190611491565b6101ac6101a73660046114a4565b6104b8565b005b6101ac6101bc366004611623565b61054c565b6101436101cf366004611428565b60801c90565b6101ac6101e33660046116cd565b610598565b6101fb6101f63660046116e8565b6105c1565b60405161014d9190611747565b6101fb61021636600461175a565b610672565b610169610229366004611428565b600090815260036020526040902054151590565b6101ac61079c565b6004546040516001600160a01b03909116815260200161014d565b6005546101439081565b6101ac610278366004611825565b6107b0565b61014361028b366004611428565b60009081526003602052604090205490565b6101ac6102ab3660046116cd565b6107bf565b6101696102be366004611861565b6001600160a01b03918216600090815260016020908152604080832093909416825291909152205460ff1690565b6101ac6102fa366004611894565b6107eb565b6101ac61030d3660046118f9565b610830565b6101ac6103203660046116cd565b610871565b60006001600160a01b0383166103955760405162461bcd60e51b815260206004820152602a60248201527f455243313135353a2061646472657373207a65726f206973206e6f742061207660448201526930b634b21037bbb732b960b11b60648201526084015b60405180910390fd5b506000818152602081815260408083206001600160a01b03861684529091529020545b92915050565b60006001600160e01b03198216636cdb3d1360e11b14806103ef57506001600160e01b031982166303a24d0760e21b145b806103b857506301ffc9a760e01b6001600160e01b03198316146103b8565b60008181526003602052604090205460609061046c5760405162461bcd60e51b815260206004820152601f60248201527f55524920717565727920666f72206e6f6e6578697374656e7420746f6b656e00604482015260640161038c565b6006600061047a8460801c90565b8152602001908152602001600020610491836108f3565b6040516020016104a29291906119c1565b6040516020818303038152906040529050919050565b3360009081526007602052604090205460ff16806104ef5750336104e46004546001600160a01b031690565b6001600160a01b0316145b61052c5760405162461bcd60e51b815260206004820152600e60248201526d1b9bdd08185d5d1a1bdc9a5e995960921b604482015260640161038c565b610547838383604051806020016040528060008152506109fc565b505050565b6001600160a01b038516331480610568575061056885336102be565b6105845760405162461bcd60e51b815260040161038c90611a78565b6105918585858585610b1f565b5050505050565b6105a0610d0a565b6001600160a01b03166000908152600760205260409020805460ff19169055565b606060008261ffff1667ffffffffffffffff8111156105e2576105e26114d7565b60405190808252806020026020018201604052801561060b578160200160208202803683370190505b50905060005b8361ffff168161ffff16101561066b5760008161ffff16608061063360055490565b901b17905080838361ffff168151811061064f5761064f611ac7565b60209081029190910101525061066481611af3565b9050610611565b5092915050565b606081518351146106d75760405162461bcd60e51b815260206004820152602960248201527f455243313135353a206163636f756e747320616e6420696473206c656e677468604482015268040dad2e6dac2e8c6d60bb1b606482015260840161038c565b6000835167ffffffffffffffff8111156106f3576106f36114d7565b60405190808252806020026020018201604052801561071c578160200160208202803683370190505b50905060005b84518110156107945761076785828151811061074057610740611ac7565b602002602001015185838151811061075a5761075a611ac7565b6020026020010151610325565b82828151811061077957610779611ac7565b602090810291909101015261078d81611b14565b9050610722565b509392505050565b6107a4610d0a565b6107ae6000610d64565b565b6107bb338383610db6565b5050565b6107c7610d0a565b6001600160a01b03166000908152600760205260409020805460ff19166001179055565b6001600160a01b038516331480610807575061080785336102be565b6108235760405162461bcd60e51b815260040161038c90611a78565b6105918585858585610e96565b610838610d0a565b81816006600061084760055490565b81526020019081526020016000209182610862929190611b73565b506107bb600580546001019055565b610879610d0a565b6001600160a01b0381166108de5760405162461bcd60e51b815260206004820152602660248201527f4f776e61626c653a206e6577206f776e657220697320746865207a65726f206160448201526564647265737360d01b606482015260840161038c565b6108e781610d64565b50565b80546001019055565b60608160000361091a5750506040805180820190915260018152600360fc1b602082015290565b8160005b8115610944578061092e81611b14565b915061093d9050600a83611c49565b915061091e565b60008167ffffffffffffffff81111561095f5761095f6114d7565b6040519080825280601f01601f191660200182016040528015610989576020820181803683370190505b5090505b84156109f45761099e600183611c5d565b91506109ab600a86611c70565b6109b6906030611c84565b60f81b8183815181106109cb576109cb611ac7565b60200101906001600160f81b031916908160001a9053506109ed600a86611c49565b945061098d565b949350505050565b6001600160a01b038416610a5c5760405162461bcd60e51b815260206004820152602160248201527f455243313135353a206d696e7420746f20746865207a65726f206164647265736044820152607360f81b606482015260840161038c565b336000610a6885610fce565b90506000610a7585610fce565b9050610a8683600089858589611019565b6000868152602081815260408083206001600160a01b038b16845290915281208054879290610ab6908490611c84565b909155505060408051878152602081018790526001600160a01b03808a1692600092918716917fc3d58168c5ae7397731d063d5bbf3d657854427343f4c083240f7aacaa2d0f62910160405180910390a4610b1683600089898989611192565b50505050505050565b8151835114610b815760405162461bcd60e51b815260206004820152602860248201527f455243313135353a2069647320616e6420616d6f756e7473206c656e677468206044820152670dad2e6dac2e8c6d60c31b606482015260840161038c565b6001600160a01b038416610ba75760405162461bcd60e51b815260040161038c90611c97565b33610bb6818787878787611019565b60005b8451811015610c9c576000858281518110610bd657610bd6611ac7565b602002602001015190506000858381518110610bf457610bf4611ac7565b602090810291909101810151600084815280835260408082206001600160a01b038e168352909352919091205490915081811015610c445760405162461bcd60e51b815260040161038c90611cdc565b6000838152602081815260408083206001600160a01b038e8116855292528083208585039055908b16825281208054849290610c81908490611c84565b9250508190555050505080610c9590611b14565b9050610bb9565b50846001600160a01b0316866001600160a01b0316826001600160a01b03167f4a39dc06d4c0dbc64b70af90fd698a233a518aa5d07e595d983b8c0526c8f7fb8787604051610cec929190611d26565b60405180910390a4610d028187878787876112ed565b505050505050565b6004546001600160a01b031633146107ae5760405162461bcd60e51b815260206004820181905260248201527f4f776e61626c653a2063616c6c6572206973206e6f7420746865206f776e6572604482015260640161038c565b600480546001600160a01b038381166001600160a01b0319831681179093556040519116919082907f8be0079c531659141344cd1fd0a4f28419497f9722a3daafe3b4186f6b6457e090600090a35050565b816001600160a01b0316836001600160a01b031603610e295760405162461bcd60e51b815260206004820152602960248201527f455243313135353a2073657474696e6720617070726f76616c20737461747573604482015268103337b91039b2b63360b91b606482015260840161038c565b6001600160a01b03838116600081815260016020908152604080832094871680845294825291829020805460ff191686151590811790915591519182527f17307eab39ab6107e8899845ad3d59bd9653f200f220920489ca2b5937696c31910160405180910390a3505050565b6001600160a01b038416610ebc5760405162461bcd60e51b815260040161038c90611c97565b336000610ec885610fce565b90506000610ed585610fce565b9050610ee5838989858589611019565b6000868152602081815260408083206001600160a01b038c16845290915290205485811015610f265760405162461bcd60e51b815260040161038c90611cdc565b6000878152602081815260408083206001600160a01b038d8116855292528083208985039055908a16825281208054889290610f63908490611c84565b909155505060408051888152602081018890526001600160a01b03808b16928c821692918816917fc3d58168c5ae7397731d063d5bbf3d657854427343f4c083240f7aacaa2d0f62910160405180910390a4610fc3848a8a8a8a8a611192565b505050505050505050565b6040805160018082528183019092526060916000919060208083019080368337019050509050828160008151811061100857611008611ac7565b602090810291909101015292915050565b6001600160a01b0385166110a05760005b835181101561109e5782818151811061104557611045611ac7565b60200260200101516003600086848151811061106357611063611ac7565b6020026020010151815260200190815260200160002060008282546110889190611c84565b90915550611097905081611b14565b905061102a565b505b6001600160a01b038416610d025760005b8351811015610b165760008482815181106110ce576110ce611ac7565b6020026020010151905060008483815181106110ec576110ec611ac7565b602002602001015190506000600360008481526020019081526020016000205490508181101561116f5760405162461bcd60e51b815260206004820152602860248201527f455243313135353a206275726e20616d6f756e74206578636565647320746f74604482015267616c537570706c7960c01b606482015260840161038c565b6000928352600360205260409092209103905561118b81611b14565b90506110b1565b6001600160a01b0384163b15610d025760405163f23a6e6160e01b81526001600160a01b0385169063f23a6e61906111d69089908990889088908890600401611d54565b6020604051808303816000875af1925050508015611211575060408051601f3d908101601f1916820190925261120e91810190611d99565b60015b6112bd5761121d611db6565b806308c379a0036112565750611231611dd2565b8061123c5750611258565b8060405162461bcd60e51b815260040161038c9190611491565b505b60405162461bcd60e51b815260206004820152603460248201527f455243313135353a207472616e7366657220746f206e6f6e20455243313135356044820152732932b1b2b4bb32b91034b6b83632b6b2b73a32b960611b606482015260840161038c565b6001600160e01b0319811663f23a6e6160e01b14610b165760405162461bcd60e51b815260040161038c90611e5c565b6001600160a01b0384163b15610d025760405163bc197c8160e01b81526001600160a01b0385169063bc197c81906113319089908990889088908890600401611ea4565b6020604051808303816000875af192505050801561136c575060408051601f3d908101601f1916820190925261136991810190611d99565b60015b6113785761121d611db6565b6001600160e01b0319811663bc197c8160e01b14610b165760405162461bcd60e51b815260040161038c90611e5c565b80356001600160a01b03811681146113bf57600080fd5b919050565b600080604083850312156113d757600080fd5b6113e0836113a8565b946020939093013593505050565b6001600160e01b0319811681146108e757600080fd5b60006020828403121561141657600080fd5b8135611421816113ee565b9392505050565b60006020828403121561143a57600080fd5b5035919050565b60005b8381101561145c578181015183820152602001611444565b50506000910152565b6000815180845261147d816020860160208601611441565b601f01601f19169290920160200192915050565b6020815260006114216020830184611465565b6000806000606084860312156114b957600080fd5b6114c2846113a8565b95602085013595506040909401359392505050565b634e487b7160e01b600052604160045260246000fd5b601f8201601f1916810167ffffffffffffffff81118282101715611513576115136114d7565b6040525050565b600067ffffffffffffffff821115611534576115346114d7565b5060051b60200190565b600082601f83011261154f57600080fd5b8135602061155c8261151a565b60405161156982826114ed565b83815260059390931b850182019282810191508684111561158957600080fd5b8286015b848110156115a4578035835291830191830161158d565b509695505050505050565b600082601f8301126115c057600080fd5b813567ffffffffffffffff8111156115da576115da6114d7565b6040516115f1601f8301601f1916602001826114ed565b81815284602083860101111561160657600080fd5b816020850160208301376000918101602001919091529392505050565b600080600080600060a0868803121561163b57600080fd5b611644866113a8565b9450611652602087016113a8565b9350604086013567ffffffffffffffff8082111561166f57600080fd5b61167b89838a0161153e565b9450606088013591508082111561169157600080fd5b61169d89838a0161153e565b935060808801359150808211156116b357600080fd5b506116c0888289016115af565b9150509295509295909350565b6000602082840312156116df57600080fd5b611421826113a8565b6000602082840312156116fa57600080fd5b813561ffff8116811461142157600080fd5b600081518084526020808501945080840160005b8381101561173c57815187529582019590820190600101611720565b509495945050505050565b602081526000611421602083018461170c565b6000806040838503121561176d57600080fd5b823567ffffffffffffffff8082111561178557600080fd5b818501915085601f83011261179957600080fd5b813560206117a68261151a565b6040516117b382826114ed565b83815260059390931b85018201928281019150898411156117d357600080fd5b948201945b838610156117f8576117e9866113a8565b825294820194908201906117d8565b9650508601359250508082111561180e57600080fd5b5061181b8582860161153e565b9150509250929050565b6000806040838503121561183857600080fd5b611841836113a8565b91506020830135801515811461185657600080fd5b809150509250929050565b6000806040838503121561187457600080fd5b61187d836113a8565b915061188b602084016113a8565b90509250929050565b600080600080600060a086880312156118ac57600080fd5b6118b5866113a8565b94506118c3602087016113a8565b93506040860135925060608601359150608086013567ffffffffffffffff8111156118ed57600080fd5b6116c0888289016115af565b6000806020838503121561190c57600080fd5b823567ffffffffffffffff8082111561192457600080fd5b818501915085601f83011261193857600080fd5b81358181111561194757600080fd5b86602082850101111561195957600080fd5b60209290920196919550909350505050565b600181811c9082168061197f57607f821691505b60208210810361199f57634e487b7160e01b600052602260045260246000fd5b50919050565b600081516119b7818560208601611441565b9290920192915050565b66697066733a2f2f60c81b815260006007600085546119df8161196b565b600182811680156119f75760018114611a1057611a43565b60ff198416888701528215158302880186019450611a43565b8960005260208060002060005b85811015611a385781548b82018a0152908401908201611a1d565b505050858389010194505b50602f60f81b8452611a6b611a5a8286018a6119a5565b64173539b7b760d91b815260050190565b9998505050505050505050565b6020808252602f908201527f455243313135353a2063616c6c6572206973206e6f7420746f6b656e206f776e60408201526e195c881b9bdc88185c1c1c9bdd9959608a1b606082015260800190565b634e487b7160e01b600052603260045260246000fd5b634e487b7160e01b600052601160045260246000fd5b600061ffff808316818103611b0a57611b0a611add565b6001019392505050565b600060018201611b2657611b26611add565b5060010190565b601f82111561054757600081815260208120601f850160051c81016020861015611b545750805b601f850160051c820191505b81811015610d0257828155600101611b60565b67ffffffffffffffff831115611b8b57611b8b6114d7565b611b9f83611b99835461196b565b83611b2d565b6000601f841160018114611bd35760008515611bbb5750838201355b600019600387901b1c1916600186901b178355610591565b600083815260209020601f19861690835b82811015611c045786850135825560209485019460019092019101611be4565b5086821015611c215760001960f88860031b161c19848701351681555b505060018560011b0183555050505050565b634e487b7160e01b600052601260045260246000fd5b600082611c5857611c58611c33565b500490565b818103818111156103b8576103b8611add565b600082611c7f57611c7f611c33565b500690565b808201808211156103b8576103b8611add565b60208082526025908201527f455243313135353a207472616e7366657220746f20746865207a65726f206164604082015264647265737360d81b606082015260800190565b6020808252602a908201527f455243313135353a20696e73756666696369656e742062616c616e636520666f60408201526939103a3930b739b332b960b11b606082015260800190565b604081526000611d39604083018561170c565b8281036020840152611d4b818561170c565b95945050505050565b6001600160a01b03868116825285166020820152604081018490526060810183905260a060808201819052600090611d8e90830184611465565b979650505050505050565b600060208284031215611dab57600080fd5b8151611421816113ee565b600060033d1115611dcf5760046000803e5060005160e01c5b90565b600060443d1015611de05790565b6040516003193d81016004833e81513d67ffffffffffffffff8160248401118184111715611e1057505050505090565b8285019150815181811115611e285750505050505090565b843d8701016020828501011115611e425750505050505090565b611e51602082860101876114ed565b509095945050505050565b60208082526028908201527f455243313135353a204552433131353552656365697665722072656a656374656040820152676420746f6b656e7360c01b606082015260800190565b6001600160a01b0386811682528516602082015260a060408201819052600090611ed09083018661170c565b8281036060840152611ee2818661170c565b90508281036080840152611ef68185611465565b9897505050505050505056fea26469706673582212206ece7581416d40075cf765d360acb8ad7331765967e2d84d152c1201f0d9e85964736f6c63430008100033",
  "devdoc": {
    "kind": "dev",
    "methods": {
      "balanceOf(address,uint256)": {
        "details": "See {IERC1155-balanceOf}. Requirements: - `account` cannot be the zero address."
      },
      "balanceOfBatch(address[],uint256[])": {
        "details": "See {IERC1155-balanceOfBatch}. Requirements: - `accounts` and `ids` must have the same length."
      },
      "exists(uint256)": {
        "details": "Indicates whether any token exist with a given id, or not."
      },
      "isApprovedForAll(address,address)": {
        "details": "See {IERC1155-isApprovedForAll}."
      },
      "owner()": {
        "details": "Returns the address of the current owner."
      },
      "renounceOwnership()": {
        "details": "Leaves the contract without owner. It will not be possible to call `onlyOwner` functions anymore. Can only be called by the current owner. NOTE: Renouncing ownership will leave the contract without an owner, thereby removing any functionality that is only available to the owner."
      },
      "safeBatchTransferFrom(address,address,uint256[],uint256[],bytes)": {
        "details": "See {IERC1155-safeBatchTransferFrom}."
      },
      "safeTransferFrom(address,address,uint256,uint256,bytes)": {
        "details": "See {IERC1155-safeTransferFrom}."
      },
      "setApprovalForAll(address,bool)": {
        "details": "See {IERC1155-setApprovalForAll}."
      },
      "supportsInterface(bytes4)": {
        "details": "See {IERC165-supportsInterface}."
      },
      "totalSupply(uint256)": {
        "details": "Total amount of tokens in with a given id."
      },
      "transferOwnership(address)": {
        "details": "Transfers ownership of the contract to a new account (`newOwner`). Can only be called by the current owner."
      }
    },
    "version": 1
  },
  "userdoc": {
    "kind": "user",
    "methods": {},
    "version": 1
  },
  "storageLayout": {
    "storage": [
      {
        "astId": 138,
        "contract": "contracts/SnowmenGame.sol:SnowmenGame",
        "label": "_balances",
        "offset": 0,
        "slot": "0",
        "type": "t_mapping(t_uint256,t_mapping(t_address,t_uint256))"
      },
      {
        "astId": 144,
        "contract": "contracts/SnowmenGame.sol:SnowmenGame",
        "label": "_operatorApprovals",
        "offset": 0,
        "slot": "1",
        "type": "t_mapping(t_address,t_mapping(t_address,t_bool))"
      },
      {
        "astId": 146,
        "contract": "contracts/SnowmenGame.sol:SnowmenGame",
        "label": "_uri",
        "offset": 0,
        "slot": "2",
        "type": "t_string_storage"
      },
      {
        "astId": 1508,
        "contract": "contracts/SnowmenGame.sol:SnowmenGame",
        "label": "_totalSupply",
        "offset": 0,
        "slot": "3",
        "type": "t_mapping(t_uint256,t_uint256)"
      },
      {
        "astId": 7,
        "contract": "contracts/SnowmenGame.sol:SnowmenGame",
        "label": "_owner",
        "offset": 0,
        "slot": "4",
        "type": "t_address"
      },
      {
        "astId": 3434,
        "contract": "contracts/SnowmenGame.sol:SnowmenGame",
        "label": "atFolderId",
        "offset": 0,
        "slot": "5",
        "type": "t_struct(Counter)3084_storage"
      },
      {
        "astId": 3438,
        "contract": "contracts/SnowmenGame.sol:SnowmenGame",
        "label": "_metadataHash",
        "offset": 0,
        "slot": "6",
        "type": "t_mapping(t_uint256,t_string_storage)"
      },
      {
        "astId": 3442,
        "contract": "contracts/SnowmenGame.sol:SnowmenGame",
        "label": "_authorized",
        "offset": 0,
        "slot": "7",
        "type": "t_mapping(t_address,t_bool)"
      }
    ],
    "types": {
      "t_address": {
        "encoding": "inplace",
        "label": "address",
        "numberOfBytes": "20"
      },
      "t_bool": {
        "encoding": "inplace",
        "label": "bool",
        "numberOfBytes": "1"
      },
      "t_mapping(t_address,t_bool)": {
        "encoding": "mapping",
        "key": "t_address",
        "label": "mapping(address => bool)",
        "numberOfBytes": "32",
        "value": "t_bool"
      },
      "t_mapping(t_address,t_mapping(t_address,t_bool))": {
        "encoding": "mapping",
        "key": "t_address",
        "label": "mapping(address => mapping(address => bool))",
        "numberOfBytes": "32",
        "value": "t_mapping(t_address,t_bool)"
      },
      "t_mapping(t_address,t_uint256)": {
        "encoding": "mapping",
        "key": "t_address",
        "label": "mapping(address => uint256)",
        "numberOfBytes": "32",
        "value": "t_uint256"
      },
      "t_mapping(t_uint256,t_mapping(t_address,t_uint256))": {
        "encoding": "mapping",
        "key": "t_uint256",
        "label": "mapping(uint256 => mapping(address => uint256))",
        "numberOfBytes": "32",
        "value": "t_mapping(t_address,t_uint256)"
      },
      "t_mapping(t_uint256,t_string_storage)": {
        "encoding": "mapping",
        "key": "t_uint256",
        "label": "mapping(uint256 => string)",
        "numberOfBytes": "32",
        "value": "t_string_storage"
      },
      "t_mapping(t_uint256,t_uint256)": {
        "encoding": "mapping",
        "key": "t_uint256",
        "label": "mapping(uint256 => uint256)",
        "numberOfBytes": "32",
        "value": "t_uint256"
      },
      "t_string_storage": {
        "encoding": "bytes",
        "label": "string",
        "numberOfBytes": "32"
      },
      "t_struct(Counter)3084_storage": {
        "encoding": "inplace",
        "label": "struct Counters.Counter",
        "members": [
          {
            "astId": 3083,
            "contract": "contracts/SnowmenGame.sol:SnowmenGame",
            "label": "_value",
            "offset": 0,
            "slot": "0",
            "type": "t_uint256"
          }
        ],
        "numberOfBytes": "32"
      },
      "t_uint256": {
        "encoding": "inplace",
        "label": "uint256",
        "numberOfBytes": "32"
      }
    }
  }
}